:100000000C9490000C94B8000C94B8000C94B800B8
:100010000C94B8000C94B8000C94B8000C94B80080
:100020000C94B8000C94B8000C94B8000C94B80070
:100030000C94B8000C94B8000C94B8000C94B80060
:100040000C9446060C94B8000C9414060C94EE051F
:100050000C94B8000C94B8000C94B8000C94B80040
:100060000C9490060C94B800072C7AA5BA6CC59035
:10007000DA3B9365FC8BBC53F810FD3C5692834DE4
:10008000BD879D3AB63DCBC9BF5BBE73DA0FC93F92
:1000900005A84CCDB2D44EB93836A9020C50B9914E
:1000A0008688083CA6AAAA2ABE000000803F3136F6
:1000B0003A33353A3431004E6F76202039203230D1
:1000C0003139000000000023002600290000000054
:1000D00000240027002A0000000000250028002B33
:1000E00000040404040404040402020202020203E1
:1000F00003030303030102040810204080010204EB
:10010000081020010204081020000000080002016D
:1001100000000304070000000000000000000108C8
:1001200011241FBECFEFD8E0DEBFCDBF23E0A6E88D
:10013000B1E001C01D92AC35B207E1F711E0A0E0DB
:10014000B1E0EAE7F0E202C005900D92A638B107EF
:10015000D9F710E0C0E9D0E004C02197FE010E9469
:100160003510CF38D107C9F70E943A080C943B10DC
:100170000C9400002091B20281E0213208F044C0CA
:1001800080918E028111FCCF8091B10292E0909318
:100190008E0291E090938D029FEF90938C021092CB
:1001A0008B0220938A02A1E9B2E0EAE6F2E090E055
:1001B000291331C01092690290916902880F892B2E
:1001C0008093690280916802813049F5109268023B
:1001D000809169028093BB008091BC0083FDF8CFC1
:1001E00085EC8093BC0080918E028230E1F3809197
:1001F0008C028F3FB1F080918C028032A1F080910F
:100200008C02803391F084E0109290021092B2023E
:1002100010928F0208953D9131939F5FC9CF85EE73
:10022000E0CF80E0F1CF82E0EFCF83E0EDCF90919F
:100230008E029111FCCF91E090938E0290938D02EB
:100240002FEF20938C0210928B02260F20938A02AC
:100250009093690290916902880F892B80936902BB
:10026000809168028130F9F41092680280916902ED
:100270008093BB008091BC0083FDF8CF85EC809318
:10028000BC0080918E028130E1F380918B02861751
:1002900010F460918B02AAE6B2E0E8E4F2E080E0BC
:1002A000861303C0089585EEEACF9D9191938F5FE9
:1002B000F7CF90E0FC01E75FFE4F2491FC01EB508B
:1002C000FF4F3491FC01EF51FF4FE491EE23B1F069
:1002D000222339F02330E9F090F4213001F122306B
:1002E00011F1F0E0EE0FFF1FE952FF4FA591B4911D
:1002F0008FB7F894EC913E2B3C938FBF0895273035
:10030000A9F02830C9F0243061F7809180008F7DFA
:1003100003C0809180008F7780938000E2CF84B506
:100320008F7784BDDECF84B58F7DFBCF8091B00009
:100330008F778093B000D5CF8091B0008F7DF9CFBB
:10034000CF93DF9390E0FC01EB50FF4F24918F514E
:100350009F4FFC0184918823C1F090E0880F991F82
:10036000FC01E353FF4FC591D491FC01E952FF4FCB
:10037000A591B4919FB7F8948881E22FE0958E23E0
:1003800088838C91E823EC939FBFDF91CF910895F0
:1003900008950895AF92BF92CF92DF92EF92FF92AD
:1003A0000F931F93CF93DF936C017B018B01040F9D
:1003B000151FEB015E01AE18BF08C017D10759F039
:1003C0006991D601ED91FC910190F081E02DC6017B
:1003D0000995892B79F7C501DF91CF911F910F9175
:1003E000FF90EF90DF90CF90BF90AF900895FC0109
:1003F000538D448D252F30E0842F90E0821B930B8A
:10040000541710F0CF96089501970895FC01918D2F
:10041000828D981761F0A28DAE0FBF2FB11D5D9632
:100420008C91928D9F5F9F73928F90E008958FEFD4
:100430009FEF0895FC01918D828D981731F0828D88
:10044000E80FF11D858D90E008958FEF9FEF0895DF
:10045000FC01918D228D892F90E0805C9F4F821B43
:1004600091098F739927089583EB92E00E942802E7
:1004700021E0892B09F420E0822F089580E090E0AC
:10048000892B29F00E94340281110C9400000895F8
:10049000FC01A48DA80FB92FB11DA35ABF4F2C91F9
:1004A000848D90E001968F739927848FA689B789F0
:1004B0002C93A089B1898C91837080648C93938DE7
:1004C000848D981306C00288F389E02D80818F7D8A
:1004D00080830895EF92FF920F931F93CF93DF9342
:1004E000EC0181E0888F9B8D8C8D98131AC0E88970
:1004F000F989808185FF15C09FB7F894EE89FF893F
:100500006083E889F98980818370806480839FBFDC
:1005100081E090E0DF91CF911F910F91FF90EF90DC
:100520000895F62E0B8D10E00F5F1F4F0F731127EC
:10053000E02E8C8D8E110CC00FB607FCFACFE88927
:10054000F989808185FFF5CFCE010E944802F1CF65
:10055000EB8DEC0FFD2FF11DE35AFF4FF0829FB79B
:10056000F8940B8FEA89FB8980818062CFCF682F56
:1005700083EB92E00C946A02CF93DF93EC01888DB9
:100580008823B9F0AA89BB89E889F9898C9185FD0E
:1005900003C0808186FD0DC00FB607FCF7CF8C919C
:1005A00085FFF2CF808185FFEDCFCE010E9448020A
:1005B000E9CFDF91CF9108958E3008F08E5087708B
:1005C000806480937C0080917A00806480937A00BC
:1005D00080917A0086FDFCCF80917800909179001F
:1005E00008953FB7F8948091CE019091CF01A091EA
:1005F000D001B091D10126B5A89B05C02F3F19F0BD
:100600000196A11DB11D3FBFBA2FA92F982F882792
:10061000BC01CD01620F711D811D911D42E0660F6D
:10062000771F881F991F4A95D1F7089585ED80930C
:10063000BC008091BC0084FDFCCF10928E02089516
:100640002091A601260F3327331F21323105ECF408
:1006500020918E02FC0190E080E0243069F082E07D
:100660000895A091A6012191AC014A575E4FA40FB5
:10067000B52FB11D2C930196861798F38091A60192
:10068000680F6093A60180E0089581E008950895C1
:10069000E091470280914602E81730F4F0E0E85B11
:1006A000FD4F808190E008958FEF9FEF0895909126
:1006B0004702809146022FEF3FEF981748F4E92F49
:1006C000F0E0E85BFD4F208130E09F5F90934702B0
:1006D000C90108958091460290914702891B990BA8
:1006E0000895CF92DF92EF92FF920F931F93CF93D3
:1006F000DF937C01CB018A0120918F02222389F0B4
:10070000EB016B01C40ED51ECC15DD0569F06991B6
:10071000D701ED91FC910190F081E02DC701099581
:10072000F3CF642F0E942003C801DF91CF911F9166
:100730000F91FF90EF90DF90CF900895CF93DF93CC
:100740001F92CDB7DEB7698320918F022223F9F083
:100750002091B202203258F021E030E0FC013383D6
:10076000228390E080E00F90DF91CF9108958091F7
:100770009002E82FF0E0EF56FD4F998190838F5F54
:10078000809390028093B20281E090E0ECCF61E030
:10079000CE0101960E942003F7CF90E080E00895FB
:1007A000CF92DF92FF920F931F93CF93DF936C0151
:1007B00081E080938F0288E68093B10210929002CC
:1007C0001092B20260E080E593E00E949E030E94D6
:1007D000BA0067E088E60E941701109247028093F2
:1007E000460280E593E00E9457038F77282F30E080
:1007F00094E0359527959A95E1F7922F990F990FE7
:10080000C22FC91BCC0FC80F80E593E00E9457038D
:100810009C0144E0359527954A95E1F72F703327E1
:10082000922F990F990FD22FD91BDD0FD80F80E58A
:1008300093E00E9457039C0154E0359527955A9503
:10084000E1F72F703327922F990F990F122F191B51
:10085000110F180F80E593E00E94570380E593E0A5
:100860000E9457039C0164E0359527956A95E1F74E
:100870002F703327922F990F990F022F091B000F0A
:10088000080F80E593E00E9457039C0174E03595C2
:1008900027957A95E1F72F703327922F990F990FAB
:1008A000F22EF91AFF0CF80E80E593E00E94570330
:1008B0009C01E4E035952795EA95E1F72F70332701
:1008C000922F990F990F291B220F820FF601808317
:1008D000F18202831383D483C583C601DF91CF9154
:1008E0001F910F91FF90DF90CF90089581E080934A
:1008F0008F0288E68093B102109290021092B202A9
:100900006FE080E593E00E949E030E94BA0061E0E0
:1009100088E60E941701109247028093460280E504
:1009200093E00E9457030895FC0101900020E9F72D
:100930003197AF01481B590BBC0183EB92E00C943B
:10094000CA018F929F92AF92BF920F931F93CF9342
:10095000DF93CDB7DEB7A1970FB6F894DEBF0FBE19
:10096000CDBF19A2423008F44AE08E010F5D1F4F3F
:10097000842E912CB12CA12CA50194010E94F40F7E
:10098000E62FB901CA01EA30F4F4E05DD801EE9334
:100990008D01232B242B252B79F790E080E01097F5
:1009A00019F0CD010E949404A1960FB6F894DEBF11
:1009B0000FBECDBFDF91CF911F910F91BF90AF9030
:1009C0009F908F900895E95CE1CF682F70E090E0F0
:1009D00080E04AE00C94A1040C9494044F925F923E
:1009E0006F927F928F929F92AF92BF92CF92DF923F
:1009F000EF92FF920F931F93CF936B017C01742EA4
:100A0000AC019B010E94BA0F882399F088E291E023
:100A1000CF911F910F91FF90EF90DF90CF90BF90FB
:100A2000AF909F908F907F906F905F904F900C94BD
:100A3000940446015701E894B7F82FEF3FEF4FE7D2
:100A40005FE7C501B4010E94BA0F81110DC02FEFFD
:100A50003FEF4FE75FE7C501B4010E94A10C1816F4
:100A60001CF48CE291E0D4CF2FEF3FEF4FE75FE42F
:100A7000C701B6010E946F0F18161CF480E391E0C5
:100A8000C7CF2FEF3FEF4FE75FECC701B6010E94E2
:100A9000A10C87FDF3CF20E030E0A901C701B6012A
:100AA0000E94A10C10E000E087FF08C08DE20E94C8
:100AB000B7028C01F7FAF094F7F8F094C0E060E028
:100AC00070E080E09FE37C1641F020E030E040E2FF
:100AD00051E40E94480ECF5FF6CFA70196010E9415
:100AE000D70D2B013C010E94BA0E4B015C014AE07C
:100AF0000E94A1047C01E00EF11ECC23B1F1C501DE
:100B0000B4010E94A60C9B01AC01C301B2010E947A
:100B1000D60D4B015C018EE20E94B702E80EF91E71
:100B2000C15018F120E030E040E251E4C501B401C9
:100B30000E94070D2B013C010E94BA0E4B01B12C03
:100B4000A12C4AE0C501B4010E94A104E80EF91EDF
:100B5000C501B4010E94A60C9B01AC01C301B20106
:100B60000E94D60D4B015C01DBCFC701CF911F91D5
:100B70000F91FF90EF90DF90CF90BF90AF909F903C
:100B80008F907F906F905F904F9008950F931F9379
:100B9000462F90E0FC01EB50FF4F6491FC01EF51B8
:100BA000FF4FE4914111462FF0E0EE0FFF1FED5390
:100BB000FF4F8591949100E412E42FE030E00E9411
:100BC000AF07611571058105910529F06F5F7F4FB2
:100BD0008F4F9F4F9F701F910F9108951F920F92FB
:100BE0000FB60F9211242F933F934F935F936F9300
:100BF0007F938F939F93AF93BF93EF93FF9383EB79
:100C000092E00E944802FF91EF91BF91AF919F91B6
:100C10008F917F916F915F914F913F912F910F90A5
:100C20000FBE0F901F9018951F920F920FB60F9244
:100C300011242F938F939F93EF93FF93E091C3021F
:100C4000F091C4028081E091C902F091CA0282FD54
:100C50001BC090818091CC028F5F8F732091CD0259
:100C6000821741F0E091CC02F0E0ED54FD4F958FFA
:100C70008093CC02FF91EF919F918F912F910F90D4
:100C80000FBE0F901F9018958081F4CF1F920F9286
:100C90000FB60F9211242F933F938F939F93AF938F
:100CA000BF938091CA019091CB01A091CC01B091EA
:100CB000CD013091C90123E0230F2D3758F501965E
:100CC000A11DB11D2093C9018093CA019093CB014E
:100CD000A093CC01B093CD018091CE019091CF0132
:100CE000A091D001B091D1010196A11DB11D8093B9
:100CF000CE019093CF01A093D001B093D101BF91C9
:100D0000AF919F918F913F912F910F900FBE0F90B8
:100D10001F90189526E8230F0296A11DB11DD2CF72
:100D20001F920F920FB60F9211242F933F934F9360
:100D30005F936F937F938F939F93AF93BF93EF9343
:100D4000FF938091B900887F803609F44AC0F0F59E
:100D5000883209F4A7C018F5803109F49BC0B8F4B3
:100D6000882309F4F9C0883009F494C0FF91EF9109
:100D7000BF91AF919F918F917F916F915F914F91B3
:100D80003F912F910F900FBE0F901F9018958831B3
:100D900009F488C0803251F780938C0214C08034EB
:100DA00009F49DC040F48033B9F38833F9F6809399
:100DB0008C0285ECB0C0803509F485C0883509F413
:100DC00096C0883499F60E941603D0CF883909F46A
:100DD0008CC038F5883729F050F4883611F0803708
:100DE00029F683E080938E021092C80157C088389C
:100DF00009F47BC0803919F0803809F0B7CF8091B1
:100E0000C801803208F071C0E091C80181E08E0F06
:100E10008093C8018091BB00F0E0E855FE4F8083CD
:100E20003DC0803B39F0E0F4803A09F479C0883A5B
:100E300009F09CCF84E080938E021092A70110925B
:100E4000A601E091D401F091D50109958091A60108
:100E500081110FC081E08093A6011092860109C024
:100E6000803C09F4A6CF883C09F4A3CF883B09F065
:100E70007DCFE091A70181E08E0F8093A701F0E084
:100E8000EA57FE4F80818093BB009091A70180912B
:100E9000A60129C0809169028093BB0085EC8093F4
:100EA000BC0064CF90918B0280918A02981758F50C
:100EB000E0918B0281E08E0F80938B02F0E0E65987
:100EC000FD4F8081E9CFE0918B0281E08E0F80930E
:100ED0008B028091BB00F0E0E659FD4F808390913A
:100EE0008B0280918A029817C8F285E8D8CFE091EA
:100EF0008B0281E08E0F80938B028091BB00F0E02B
:100F0000E659FD4F808380918D0281115CCF81E095
:100F10008093680284EA8093BC0010928E0226CFF0
:100F200085EC8093BC0010928E028091C8018032C3
:100F300030F4E091C801F0E0E855FE4F1082609176
:100F4000C80170E0E091D201F091D30188EA91E00C
:100F500009951092C8010ACF10928C0234CFCF921B
:100F6000DF92EF92FF920F931F93E82FF92F05C0A6
:100F7000015011092109310961F1908196239417DB
:100F8000B9F305C0015011092109310911F190810E
:100F900096239413F7CFC12CD12CE12CF12C0AC04D
:100FA0008FEFC81AD80AE80AF80A0C151D052E0595
:100FB0003F0579F080818623841791F36C2D7D2D78
:100FC0008E2D9F2D1F910F91FF90EF90DF90CF906E
:100FD000089560E070E080E090E01F910F91FF9035
:100FE000EF90DF90CF900895FC01908190539A305C
:100FF00008F090E0818180532AE0929F800D1124B7
:101000000895E3EBF2E01382128288EE93E0A0E011
:10101000B0E084839583A683B78328E031E03183F1
:10102000208325EC30E03587248724EC30E03787B7
:10103000268720EC30E0318B208B21EC30E0338BA5
:10104000228B22EC30E0358B248B26EC30E0378B82
:10105000268B118E128E138E148EE0E5F3E0138230
:10106000128284839583A683B7838AE191E091837A
:1010700080830895CF93DF93CDB7DEB72B970FB65C
:10108000F894DEBF0FBECDBF789484B5826084BD76
:1010900084B5816084BD85B5826085BD85B581607C
:1010A00085BD80916E00816080936E0010928100FA
:1010B00080918100826080938100809181008160B5
:1010C0008093810080918000816080938000809176
:1010D000B10084608093B1008091B0008160809302
:1010E000B00080917A00846080937A0080917A00C9
:1010F000826080937A0080917A00816080937A0088
:1011000080917A00806880937A001092C10083E019
:101110000E94A00184E00E94A0018FE090E09093E3
:10112000ED018093EC0180E090E0A0E7B2E48093D1
:10113000F2019093F301A093F401B093F50180E0E4
:1011400090E0A0E0B4E480930E0290930F02A0938D
:101150001002B0931102E091C302F091C40282E048
:101160008083E091BF02F091C0021082E091C10241
:10117000F091C20280E180831092CB02E091C7021D
:10118000F091C80286E08083E091C502F091C6022A
:10119000808180618083E091C502F091C6028081E8
:1011A00088608083E091C502F091C60280818068EA
:1011B0008083E091C502F091C60280818F7D80839B
:1011C0001092470210924602109290021092B202C0
:1011D00010928E0201E000938D021092680282E16B
:1011E0000E94590183E10E9459018091B9008E7FCC
:1011F0008093B9008091B9008D7F8093B90088E415
:101200008093B80085E48093BC0088EC91E09093D3
:10121000D5018093D40189EC91E09093D301809320
:10122000D20100938F0288E68093B102109290025F
:101230001092B2020E94BA00811135C00E94760459
:1012400090E0880F892F881F990B892B09F4D1C052
:101250004BE050E067EB70E0CE0101960E94980CE5
:10126000CE010A960E94F407082FE981E154E33188
:1012700020F50E2E000CFF0BE05CF64F0C943510A1
:10128000340A5D095D09480A5D095C095D095D096B
:101290005D09280A5D095D093B0A460A440A5D09A1
:1012A0005D095D09420A84E391E00E94940482E5AD
:1012B00091E00E949404FFCF12E0CE0105960E94B7
:1012C000F407C82E48E050E06EEA70E0CE010196C7
:1012D0000E94980CCE0101960E94F407B82ECE0110
:1012E00004960E94F407A82ECE0107960E94F407E8
:1012F000982EEE24E394E0928F02E8E6FE2EF09220
:10130000B102109290021092B20260E080E593E088
:101310000E949E03FAE0DF2E892D6D2D0E94E80FBA
:10132000682F660F680F660F690D80E593E00E94D5
:101330009E038A2D6D2D0E94E80F682F660F680F9F
:10134000660F6A0D80E593E00E949E038B2D6D2D44
:101350000E94E80F682F660F680F660F6B0D80E51F
:1013600093E00E949E0360E080E593E00E949E036C
:101370008C2D6D2D0E94E80F682F660F680F660F89
:101380006C0D80E593E00E949E03812F6D2D0E94DD
:10139000E80F682F660F680F660F610F80E593E016
:1013A0000E949E03802F6D2D0E94E80F682F660F0C
:1013B000680F660F600F80E593E00E949E030E9415
:1013C000BA000E947604182FE0928F02F092B102C8
:1013D000109290021092B2026FE080E593E00E94BA
:1013E0009E03612F6F7780E593E00E949E030E9429
:1013F000BA0070E0272E70E0372ECE0101960E94D1
:10140000D0032EE420937C000E94F1026B017C014A
:1014100062E0862E912CA12CB12C0E94F1026C1955
:101420007D098E099F09683E734081059105A8F3E7
:1014300088EEC80E83E0D81EE11CF11C8A9489282E
:101440008A288B2839F1812C912C54018394E5CF83
:101450008A8111E0813609F430CF8B8117E08E3616
:1014600009F02BCF16E029CF8B8118E0823709F0E5
:1014700024CF14E022CF8B8115E0823709F01DCFF5
:1014800013E01BCF19E019CF1AE017CF1BE015CFDF
:101490001CE013CF80917A00806480937A00809161
:1014A0007A0086FDFCCF809178002091790030E0B1
:1014B000322F2227032E000C440B550B282B60E003
:1014C00070E381E190E00E941610690108EC15E0DC
:1014D0008091EC010E94DC029093FD018093FC015D
:1014E00040900E0250900F02609010027090110216
:1014F000BC01990F880B990B0E94A80C4B015C0151
:10150000A30192010E94D60D20E030E040E85AE3AA
:101510000E94070DA30192010E94D70D9B01AC010F
:1015200020930E0230930F02409310025093110249
:10153000C501B4010E94D60D6093060270930702A4
:1015400080930802909309029B01AC010E94070D51
:1015500060931E0270931F028093200290932102D9
:1015600020912202309123024091240250912502C1
:101570000E94D70D6093220270932302809324026D
:10158000909325020150110909F0A2CF20E030E02C
:1015900049EB54E40E94480E0E947A0F4B015C0113
:1015A000B601DD0C880B990B0E94A80C20E030E0FE
:1015B0004AE754E40E94480E20E030E040E85AE355
:1015C0000E94070D2091F2013091F3014091F40146
:1015D0005091F5010E94070DA50194010E94070D8D
:1015E0006093E6017093E7018093E8019093E9012D
:1015F00010922202109223021092240210922502CD
:101600006093420270934302809344029093450298
:1016100090E1E92EF12C812C912C54018EE00E9456
:10162000DC02092E000CAA0BBB0B880E991EAA1E09
:10163000BB1E81E0E81AF10889F7C501B4010E94D8
:10164000A80C20E030E040E85DE30E94070D20E0B8
:1016500030E046E653E40E94070D20E030EC4FE70F
:1016600054E40E94480E60933E0270933F028093C0
:1016700040029093410261E084E00E94C6056B0144
:101680007C0160E084E00E94C6056C0D7D1D8E1D0E
:101690009F1D0E94A60C2DEB37E346E855E30E9400
:1016A000070D6B017C0120E030E0A9010E94A10C34
:1016B000882359F0A701960160E070E080E89FE37D
:1016C0000E94480E0E94BA0E8B01B80190E080E0A3
:1016D0000E94A60C60933A0270933B0280933C02F6
:1016E00090933D0260930001709301018093020189
:1016F0009093030100E110E0C12CD12C760161E050
:1017000083E00E94C6050E94A60C2DEB37E346E855
:1017100055E30E94070D20E030E044EB53E40E94C3
:10172000070D20910001309101014091020150917B
:1017300003010E94070D4B015C01209132023091A0
:10174000330240913402509135020E946F0F1816F7
:10175000D4F48092320290923302A0923402B0927A
:1017600035022BED3FE049E450E4C501B4010E948D
:10177000070D20E030E044E353E40E94480E0E944D
:10178000430E6B017C010150110909F0B8CF20E034
:1017900030E044EB53E46091320270913302809167
:1017A0003402909135020E946F0F181634F4C12C48
:1017B000D12C80E8E82E8FE3F82E1092320210929E
:1017C00033021092340210923502C0923602D09247
:1017D0003702E0923802F0923902CE0101960E945F
:1017E000D003698170E06053784F072E000C880B9E
:1017F000990B4AE00E94A1048DE20E94B7028A81FF
:101800000E94E5048DE20E94B7028B810E94E504EC
:101810008C810E94E5048AE30E94B7028D810E94B8
:10182000E5048AE30E94B7028E810E94E50488E7FE
:1018300091E00E94EC0485E591E00E94EC04609147
:101840003A0270913B0280913C0290913D0242E04D
:101850000E94EE048CE591E00E94EC0483E691E0A6
:101860000E94EC0460913602709137028091380238
:10187000909139020E94C50D20E030E044E353E42A
:101880000E94070D2BED3FE049E450E40E94480E12
:1018900042E00E94EE0488E791E00E94EC048BE6AF
:1018A00091E00E94EC0460913602709137028091C1
:1018B00038029091390242E00E94EE0488E791E0FC
:1018C0000E94EC0480E791E00E94EC0460914202E7
:1018D00070914302809144029091450242E00E943F
:1018E000EE0486E791E00E94EC048CE791E00E9410
:1018F000EC0460913E0270913F0280914002909111
:10190000410242E00E94EE0482E891E00E949404C9
:1019100082E591E00E9494042114310409F46DCD14
:101920000E943402882309F468CD0E94000065CD2E
:10193000FB01DC0102C005900D9241505040D8F7E8
:1019400008950E94E30C08F481E00895E89409C02A
:1019500097FB3EF490958095709561957F4F8F4FE2
:101960009F4F9923A9F0F92F96E9BB279395F695F8
:10197000879577956795B795F111F8CFFAF4BB0F76
:1019800011F460FF1BC06F5F7F4F8F4F9F4F16C0DA
:10199000882311F096E911C0772321F09EE8872F64
:1019A000762F05C0662371F096E8862F70E060E020
:1019B0002AF09A95660F771F881FDAF7880F969599
:1019C000879597F90895990F0008550FAA0BE0E83D
:1019D000FEEF16161706E807F907C0F012161306F1
:1019E000E407F50798F0621B730B840B950B39F431
:1019F0000A2661F0232B242B252B21F408950A2697
:101A000009F4A140A6958FEF811D811D08950E94C4
:101A10001A0D0C948B0D0E947D0D38F00E94840DE0
:101A200020F0952311F00C94740D0C947A0D112470
:101A30000C94BF0D0E949C0D70F3959FC1F3950F00
:101A400050E0551F629FF001729FBB27F00DB11D42
:101A5000639FAA27F00DB11DAA1F649F6627B00DD2
:101A6000A11D661F829F2227B00DA11D621F739FBB
:101A7000B00DA11D621F839FA00D611D221F749FC9
:101A80003327A00D611D231F849F600D211D822F10
:101A9000762F6A2F11249F5750409AF0F1F0882337
:101AA0004AF0EE0FFF1FBB1F661F771F881F915064
:101AB0005040A9F79E3F510580F00C94740D0C9492
:101AC000BF0D5F3FE4F3983ED4F386957795679515
:101AD000B795F795E7959F5FC1F7FE2B880F911D8E
:101AE0009695879597F9089597F99F6780E870E034
:101AF00060E008959FEF80EC089500240A94161684
:101B0000170618060906089500240A9412161306EB
:101B1000140605060895092E0394000C11F4882379
:101B200052F0BB0F40F4BF2B11F460FF04C06F5F95
:101B30007F4F8F4F9F4F089557FD9058440F551F6B
:101B400059F05F3F71F04795880F97FB991F61F03F
:101B50009F3F79F087950895121613061406551FB6
:101B6000F2CF4695F1DF08C0161617061806991F22
:101B7000F1CF86957105610508940895E894BB2717
:101B800066277727CB0197F908959F939F770E9447
:101B9000E90E0F90002042F49058A2EA2AED3FE0AF
:101BA00049E450E40E94EE0D0C948B0D5058BB2775
:101BB000AA270E94EE0D0C948B0D0E947D0D38F02B
:101BC0000E94840D20F039F49F3F19F426F40C9400
:101BD0007A0D0EF4E095E7FB0C94740DE92F0E944A
:101BE0009C0D58F3BA17620773078407950720F016
:101BF00079F4A6F50C94BE0D0EF4E0950B2EBA2FD9
:101C0000A02D0B01B90190010C01CA01A001112402
:101C1000FF27591B99F0593F50F4503E68F11A16AE
:101C2000F040A22F232F342F4427585FF3CF46953F
:101C300037952795A795F0405395C9F77EF41F1661
:101C4000BA0B620B730B840BBAF09150A1F0FF0F2B
:101C5000BB1F661F771F881FC2F70EC0BA0F621F17
:101C6000731F841F48F4879577956795B795F79507
:101C70009E3F08F0B0CF9395880F08F09927EE0F9C
:101C80009795879508950E94320FE3950C945B0F0A
:101C90000E945C0E0C948B0D0E94840D58F00E94E3
:101CA0007D0D40F029F45F3F29F00C94740D511123
:101CB0000C94BF0D0C947A0D0E949C0D68F399232F
:101CC000B1F3552391F3951B550BBB27AA27621738
:101CD0007307840738F09F5F5F4F220F331F441F45
:101CE000AA1FA9F335D00E2E3AF0E0E832D0915079
:101CF0005040E695001CCAF72BD0FE2F29D0660F66
:101D0000771F881FBB1F261737074807AB07B0E8A8
:101D100009F0BB0B802DBF01FF2793585F4F3AF0AE
:101D20009E3F510578F00C94740D0C94BF0D5F3FED
:101D3000E4F3983ED4F3869577956795B795F79534
:101D40009F5FC9F7880F911D9695879597F908951C
:101D5000E1E0660F771F881FBB1F621773078407B8
:101D6000BA0720F0621B730B840BBA0BEE1F88F7C7
:101D7000E09508950E94A40D88F09F5798F0B92F20
:101D80009927B751B0F0E1F0660F771F881F991FB0
:101D90001AF0BA95C9F714C0B13091F00E94BE0D87
:101DA000B1E008950C94BE0D672F782F8827B85F97
:101DB00039F0B93FCCF3869577956795B395D9F708
:101DC0003EF490958095709561957F4F8F4F9F4F12
:101DD0000895DF93CF931F930F938B01EC01E8E6F7
:101DE000F0E00E94090F0E948B0D9801AE018B015B
:101DF000EC0160E070E080E89FE30E94D60D0E9455
:101E00007A0F9801AE010F911F91CF91DF910C9441
:101E10001A0DDF93CF931F930F93FF92EF92DF92F0
:101E20007B018C01689406C0DA2EEF010E941A0D26
:101E3000FE01E894A5912591359145915591A6F320
:101E4000EF010E94EE0DFE019701A801DA9469F7F7
:101E5000DF90EF90FF900F911F91CF91DF91089548
:101E60000C947A0D0E94A40DD8F3E894E0E0BB270F
:101E70009F57F0F02AED3FE049EC06C0EE0FBB0F94
:101E8000661F771F881F28F0B23A6207730784071E
:101E900028F0B25A620B730B840BE3959A9572F794
:101EA000803830F49A95BB0F661F771F881FD2F7D2
:101EB00090480C94C10FEF93E0FF07C0A2EA2AED0F
:101EC0003FE049EC5FEB0E94EE0D0E948B0D0F90FE
:101ED000039401FC9058E0E9F0E00C94D40F0E94C8
:101EE000E30C08F48FEF089519F416F40C947A0DAE
:101EF0000C94BF0F0E94A40DB8F39923C9F3B6F355
:101F00009F57550B87FF0E94CD0F0024A0E640EAA3
:101F1000900180585695979528F4805C660F771F3E
:101F2000881F20F026173707480730F4621B730B11
:101F3000840B202931294A2BA69517940794202534
:101F400031254A2758F7660F771F881F20F026177C
:101F50003707480730F4620B730B840B200D311DDB
:101F6000411DA09581F7B901842F9158880F96954E
:101F7000879508950E94E30C880B990B08959F3F65
:101F800031F0915020F4879577956795B795880F34
:101F9000911D9695879597F9089591505040660F39
:101FA000771F881FD2F708959F938F937F936F9326
:101FB000FF93EF939B01AC010E94070DEF91FF91FE
:101FC0000E94090F2F913F914F915F910C94070D43
:101FD000991B79E004C0991F961708F0961B881F7B
:101FE0007A95C9F780950895A1E21A2EAA1BBB1B0A
:101FF000FD010DC0AA1FBB1FEE1FFF1FA217B307D5
:10200000E407F50720F0A21BB30BE40BF50B661FEA
:10201000771F881F991F1A9469F7609570958095AE
:1020200090959B01AC01BD01CF010895052E97FB52
:102030001EF400940E942D1057FD07D00E94F40F4B
:1020400007FC03D04EF40C942D105095409530951C
:1020500021953F4F4F4F5F4F089590958095709514
:1020600061957F4F8F4F9F4F0895EE0FFF1F059093
:0A207000F491E02D0994F894FFCFDD
:10207A0000007042000000006A02CA01F701BC02B7
:10208A00280206021A02000000009E037103CD0313
:10209A0047036A03570348036E616E00696E660060
:1020AA006F7666004D6F64756C6F20525443206ED4
:1020BA00616F20666F6920656E636F6E747261640A
:1020CA006F000D0A00467265713A200020487A2096
:1020DA0009200050484153453A200050463A200012
:1020EA004375723A2000204120092000566C743A48
:0620FA002000205600004A
:107E0000112484B714BE81FFF0D085E080938100F7
:107E100082E08093C00088E18093C10086E0809377
:107E2000C20080E18093C4008EE0C9D0259A86E02C
:107E300020E33CEF91E0309385002093840096BBD3
:107E4000B09BFECF1D9AA8958150A9F7CC24DD24C4
:107E500088248394B5E0AB2EA1E19A2EF3E0BF2EE7
:107E6000A2D0813461F49FD0082FAFD0023811F036
:107E7000013811F484E001C083E08DD089C08234E0
:107E800011F484E103C0853419F485E0A6D080C0E4
:107E9000853579F488D0E82EFF2485D0082F10E0AE
:107EA000102F00270E291F29000F111F8ED06801E7
:107EB0006FC0863521F484E090D080E0DECF843638
:107EC00009F040C070D06FD0082F6DD080E0C81688
:107ED00080E7D80618F4F601B7BEE895C0E0D1E017
:107EE00062D089930C17E1F7F0E0CF16F0E7DF06D8
:107EF00018F0F601B7BEE89568D007B600FCFDCFD4
:107F0000A601A0E0B1E02C9130E011968C91119780
:107F100090E0982F8827822B932B1296FA010C0160
:107F200087BEE89511244E5F5F4FF1E0A038BF0790
:107F300051F7F601A7BEE89507B600FCFDCF97BE46
:107F4000E89526C08437B1F42ED02DD0F82E2BD052
:107F50003CD0F601EF2C8F010F5F1F4F84911BD097
:107F6000EA94F801C1F70894C11CD11CFA94CF0C13
:107F7000D11C0EC0853739F428D08EE10CD085E9AC
:107F80000AD08FE07ACF813511F488E018D01DD067
:107F900080E101D065CF982F8091C00085FFFCCF94
:107FA0009093C60008958091C00087FFFCCF809118
:107FB000C00084FD01C0A8958091C6000895E0E648
:107FC000F0E098E1908380830895EDDF803219F02E
:107FD00088E0F5DFFFCF84E1DECF1F93182FE3DFCA
:107FE0001150E9F7F2DF1F91089580E0E8DFEE27F6
:047FF000FF270994CA
:027FFE00040479
:0400000300007E007B
:00000001FF
